:02000000502985
:10000800FF00030E8301B0000A08B1008A01A00AAC
:100018000319A10A20308B00810131088A00300EB3
:080028008300FF0E7F0E0900AA
:100030008312031385181D281828A001A10181012E
:10004000851C232820282008F100F00170080107F2
:10005000F30000300318013E7107F4007308F0004C
:100060007408F100F00DF10D70107008AA0071080D
:04007000AB000800D9
:1000740083120313B201B301A401A50100302502C8
:10008400031D462808302402031867281820700826
:10009400AA007108AB00B20DB30D32107108033C15
:1000A400031D56287008E83C0318632807302B0208
:1000B400031D5E28D0302A0203186328B20A0319EC
:1000C400B30AA40A0319A50A40283208F000330829
:0400D400F10008002F
:0E00D8008312031323088A0022088200080006
:1000E60018207008AA007108AB0071080D3C031DAA
:1000F6007E287008AC3C0318432913302B02031DDD
:10010600862888302A02031843293A207008AC0052
:100116007108AD003A207008AE007108AF000030DB
:100126002D06031D982800302C06031D4329003098
:100136002F06031DA028FF302E06031D43293A2053
:100146007008A8007108A9003A207008A600710876
:10015600A70000302906031DB22830302806031DEB
:10016600CC2800302706031DBA28CF302606031DEB
:10017600CC2806140330FB008A30FC005530FD0005
:10018600FD0BC328FC0BC328FB0BC3280000000093
:10019600432900302906031DD22818302806031DDE
:1001A600EA2800302706031DDA28E7302606031D55
:1001B600EA2806150330FB000830FC007730FD0006
:1001C600FD0BE328FC0BE328FB0BE3284329003057
:1001D6002906031DF0287A302806031D0829003059
:1001E6002706031DF82885302606031D08298615CF
:1001F6000330FB000830FC007730FD00FD0B0129C1
:10020600FC0B0129FB0B0129432900302906031D9C
:100216000E2910302806031D262900302706031D47
:100226001629EF302606031D262906160330FB0085
:100236000830FC007730FD00FD0B1F29FC0B1F2941
:10024600FB0B1F29432900302906031D2C293830B2
:100256002806031D432900302706031D3429C7300D
:100266002606031D432986160330FB000830FC00D2
:100276007730FD00FD0B3D29FC0B3D29FB0B3D298D
:0202860008006E
:100288006C208A110A128000840AA20A0319A30AA0
:08029800F003031D44290800D6
:1002A00083120313A001A10183168E150F30850060
:1002B000860183128601850107309F0080308316F6
:1002C0008100A0308B00831281018601851C692981
:0802D0006629732065296B29E2
:02400E00192176
:00000001FF
