:020000001628C0
:0E0006008312031322088A00210882000800DA
:1000140003208A110A128000840AA10A0319A20A81
:08002400F003031D0A28080087
:10002C00831603138E15073083129F00FF3083163F
:10003C008500860183128601051CE82886110C3088
:10004C00FC00F130FD00FD0B2928FC0B29280000D9
:10005C00000086150630FC00D730FD00FD0B34285F
:10006C00FC0B3428A0010830200203184C28861100
:10007C00C730FD00FD0B4028000000008615A6309F
:10008C00FD00FD0B47280000A00A3928A00108300C
:10009C002002031864288611C730FD00FD0B54287C
:1000AC000000000086150330FC001230FD00FD0B33
:1000BC005D28FC0B5D280000A00A4D28A001033030
:1000CC002002031878288611C730FD00FD0B6C2820
:1000DC00000000008615A630FD00FD0B7328000003
:1000EC00A00A6528A001023020020318902886116E
:1000FC00C730FD00FD0B8028000000008615033082
:10010C00FC001230FD00FD0B8928FC0B8928000037
:10011C00A00A7928A001033020020318A428861114
:10012C00C730FD00FD0B9828000000008615A63096
:10013C00FD00FD0B9F280000A00A9128A0010330B0
:10014C0020020318BC288611C730FD00FD0BAC281B
:10015C000000000086150330FC001230FD00FD0B82
:10016C00B528FC0BB5280000A00AA528A001023078
:10017C0020020318D0288611C730FD00FD0BC428BF
:10018C00000000008615A630FD00FD0BCB280000FA
:10019C00A00ABD28A001043020020318E82886110B
:1001AC00C730FD00FD0BD828000000008615033079
:1001BC00FC001230FD00FD0BE128FC0BE1280000D7
:0801CC00A00AD1282228E9282D
:02400E00192176
:00000001FF
